{
  "contractName": "AllPolls",
  "abi": [
    {
      "constant": false,
      "inputs": [],
      "name": "GetContractCount",
      "outputs": [
        {
          "name": "",
          "type": "uint8"
        }
      ],
      "payable": false,
      "stateMutability": "nonpayable",
      "type": "function"
    },
    {
      "constant": false,
      "inputs": [],
      "name": "NewVoteSafe",
      "outputs": [
        {
          "name": "",
          "type": "uint8"
        }
      ],
      "payable": false,
      "stateMutability": "nonpayable",
      "type": "function"
    },
    {
      "constant": false,
      "inputs": [
        {
          "name": "i",
          "type": "uint8"
        }
      ],
      "name": "GetVoteSafeContractAddress",
      "outputs": [
        {
          "name": "",
          "type": "address"
        }
      ],
      "payable": false,
      "stateMutability": "nonpayable",
      "type": "function"
    },
    {
      "constant": false,
      "inputs": [],
      "name": "test",
      "outputs": [
        {
          "name": "",
          "type": "string"
        }
      ],
      "payable": false,
      "stateMutability": "nonpayable",
      "type": "function"
    }
  ],
  "bytecode": "0x60606040526000600160006101000a81548160ff021916908360ff160217905550341561002b57600080fd5b610bfb8061003a6000396000f300606060405260043610610062576000357c0100000000000000000000000000000000000000000000000000000000900463ffffffff1680638e23da0314610067578063a583943c14610096578063e9244f66146100fc578063f8a8fd6d1461012b575b600080fd5b341561007257600080fd5b61007a6101b9565b604051808260ff1660ff16815260200191505060405180910390f35b34156100a157600080fd5b6100ba600480803560ff169060200190919050506101d0565b604051808273ffffffffffffffffffffffffffffffffffffffff1673ffffffffffffffffffffffffffffffffffffffff16815260200191505060405180910390f35b341561010757600080fd5b61010f610212565b604051808260ff1660ff16815260200191505060405180910390f35b341561013657600080fd5b61013e6102e3565b6040518080602001828103825283818151815260200191508051906020019080838360005b8381101561017e578082015181840152602081019050610163565b50505050905090810190601f1680156101ab5780820380516001836020036101000a031916815260200191505b509250505060405180910390f35b6000600160009054906101000a900460ff16905090565b60008060008360ff1660ff16815260200190815260200160002060009054906101000a900473ffffffffffffffffffffffffffffffffffffffff169050919050565b60008061021d610326565b604051809103906000f080151561023357600080fd5b905080600080600160009054906101000a900460ff1660ff1660ff16815260200190815260200160002060006101000a81548173ffffffffffffffffffffffffffffffffffffffff021916908373ffffffffffffffffffffffffffffffffffffffff1602179055506001600081819054906101000a900460ff168092919060010191906101000a81548160ff021916908360ff16021790555050600160009054906101000a900460ff1691505090565b6102eb610336565b6040805190810160405280600381526020017f6473730000000000000000000000000000000000000000000000000000000000815250905090565b6040516108858061034b83390190565b602060405190810160405280600081525090560060606040526000600455341561001457600080fd5b610862806100236000396000f30060606040526004361061008e576000357c0100000000000000000000000000000000000000000000000000000000900463ffffffff1680631a7d48ac14610093578063256ce2411461012157806338a3bb501461015b57806377ad6ed51461018457806386dd76a6146101fd578063a0c7842c14610266578063b466859214610306578063fe1bb74814610394575b600080fd5b341561009e57600080fd5b6100a6610409565b6040518080602001828103825283818151815260200191508051906020019080838360005b838110156100e65780820151818401526020810190506100cb565b50505050905090810190601f1680156101135780820380516001836020036101000a031916815260200191505b509250505060405180910390f35b341561012c57600080fd5b610145600480803560ff169060200190919050506104b1565b6040518082815260200191505060405180910390f35b341561016657600080fd5b61016e6104d4565b6040518082815260200191505060405180910390f35b341561018f57600080fd5b6101df600480803590602001908201803590602001908080601f016020809104026020016040519081016040528093929190818152602001838380828437820191505050505050919050506104de565b60405180826000191660001916815260200191505060405180910390f35b341561020857600080fd5b610264600480803560ff1690602001909190803590602001908201803590602001908080601f0160208091040260200160405190810160405280939291908181526020018383808284378201915050505050509190505061056b565b005b341561027157600080fd5b610304600480803590602001908201803590602001908080601f0160208091040260200160405190810160405280939291908181526020018383808284378201915050505050509190803590602001908201803590602001908080601f0160208091040260200160405190810160405280939291908181526020018383808284378201915050505050509190505061060d565b005b341561031157600080fd5b61031961063f565b6040518080602001828103825283818151815260200191508051906020019080838360005b8381101561035957808201518184015260208101905061033e565b50505050905090810190601f1680156103865780820380516001836020036101000a031916815260200191505b509250505060405180910390f35b341561039f57600080fd5b6103ef600480803590602001908201803590602001908080601f016020809104026020016040519081016040528093929190818152602001838380828437820191505050505050919050506106e7565b604051808215151515815260200191505060405180910390f35b610411610755565b60008054600181600116156101000203166002900480601f0160208091040260200160405190810160405280929190818152602001828054600181600116156101000203166002900480156104a75780601f1061047c576101008083540402835291602001916104a7565b820191906000526020600020905b81548152906001019060200180831161048a57829003601f168201915b5050505050905090565b6000600260008360ff1660ff168152602001908152602001600020549050919050565b6000600454905090565b6000806002836040518082805190602001908083835b60208310151561051957805182526020820191506020810190506020830392506104f4565b6001836020036101000a0380198251168184511680821785525050505050509050019150506020604051808303816000865af1151561055757600080fd5b505060405180519050905080915050919050565b610573610769565b82816000019060ff16908160ff168152505061058e826104de565b8160200190600019169081600019168152505042816040018181525050600260008460ff1660ff1681526020019081526020016000206000815480929190600101919050555080602001516003600060045481526020019081526020016000208160001916905550600460008154809291906001019190505550505050565b8160009080519060200190610623929190610791565b50806001908051906020019061063a929190610791565b505050565b610647610755565b60018054600181600116156101000203166002900480601f0160208091040260200160405190810160405280929190818152602001828054600181600116156101000203166002900480156106dd5780601f106106b2576101008083540402835291602001916106dd565b820191906000526020600020905b8154815290600101906020018083116106c057829003601f168201915b5050505050905090565b60008060008060006106f8866104de565b935060019250600091505b600454821015610748576003600083815260200190815260200160002054905083600019168160001916141561073b5782945061074c565b8180600101925050610703565b8294505b50505050919050565b602060405190810160405280600081525090565b606060405190810160405280600060ff16815260200160008019168152602001600081525090565b828054600181600116156101000203166002900490600052602060002090601f016020900481019282601f106107d257805160ff1916838001178555610800565b82800160010185558215610800579182015b828111156107ff5782518255916020019190600101906107e4565b5b50905061080d9190610811565b5090565b61083391905b8082111561082f576000816000905550600101610817565b5090565b905600a165627a7a72305820115a0ea8e889a54409873113708398f80c52c3ac30f87253006a1227249e5e730029a165627a7a72305820b4327f78c72254ecc9a101818cf7bce4e47992798faa2926c8c0f64cd4abdee70029",
  "source": "pragma solidity ^0.4.4;\r\n\r\ncontract AllPolls {\r\n\r\n  //address[] public contracts;\r\n  mapping (uint8 => address) contracts;\r\n  uint8 contractCount=0;\r\n\r\n  // useful to know the row count in contracts index\r\n  function GetContractCount() public  returns(uint8)\r\n  {\r\n    //return contracts.length;\r\n    return contractCount;\r\n  }\r\n\r\n  // deploy a new contract\r\n  function NewVoteSafe() public returns(uint8)\r\n  {\r\n    VoteSafe c = new VoteSafe();\r\n    contracts[contractCount] = c;\r\n    contractCount++;\r\n    //contracts.push(c);\r\n    return contractCount;\r\n  }\r\n\r\n  function GetVoteSafeContractAddress(uint8 i) public returns(address)\r\n  {\r\n    return contracts[i];\r\n  }\r\n\r\n  function test() returns (string)\r\n  {\r\n    return (\"dss\");\r\n  }\r\n\r\n}\r\n\r\n\r\ncontract VoteSafe\r\n{\r\n    struct Node\r\n    {\r\n        uint8 OptionSelected;\r\n        bytes32 AadharHash;\r\n        uint Timestamp;\r\n    } \r\n\r\n    string PollOptions;\r\n    string PollTitle;\r\n    mapping(uint8 => uint) Vote; //option => itsvotecount\r\n    mapping(uint => bytes32) AadharHashList; //sno => aadharHash\r\n    uint TotalVoteCount=0;\r\n\r\n    function AddNewVote(uint8 option, string aadhar) public\r\n    {\r\n        Node memory newVote;\r\n        newVote.OptionSelected = option;\r\n        newVote.AadharHash = GetHash(aadhar);\r\n        newVote.Timestamp = now;\r\n        Vote[option]++;\r\n        AadharHashList[TotalVoteCount] = newVote.AadharHash;\r\n        TotalVoteCount++;\r\n    }\r\n\r\n    function GetVotePerOption(uint8 option) public returns(uint)\r\n    {\r\n        return (Vote[option]);\r\n    } \r\n\r\n    function GetTotalVoteCount() public returns (uint)\r\n    {\r\n        return (TotalVoteCount);\r\n    }\r\n    function GetHash(string input) public returns (bytes32)\r\n    {\r\n        bytes32 val = sha256(input);\r\n        return (val);\r\n    }\r\n    function AddPollOptions(string list, string title) public \r\n    {\r\n       PollOptions = list;\r\n       PollTitle = title;\r\n    }\r\n\r\n    function GetPollOptions() returns (string)\r\n    {\r\n        return PollOptions;\r\n    }\r\n\r\n    function GetPollTitle() returns (string)\r\n    {\r\n        return PollTitle;\r\n    }\r\n\r\n    function IsFirstVisit (string aadhar) returns (bool)\r\n    {\r\n        bytes32 hashAadhar = GetHash(aadhar);\r\n        bool result = true;\r\n        for (uint i = 0; i < TotalVoteCount; i ++)\r\n        {\r\n            bytes32 listHash = AadharHashList[i];\r\n            if(listHash==hashAadhar)\r\n                return result;\r\n        }\r\n        return result;\r\n    }\r\n}\r\n\r\n",
  "sourcePath": "C:\\Users\\mohitaggarwal\\Desktop\\paytm-hackthon\\online-voting-final-final\\contracts\\VoteSafe.sol",
  "compiler": {
    "name": "solc",
    "version": "0.4.21+commit.dfe3193c.Emscripten.clang"
  },
  "schemaVersion": "2.0.0",
  "updatedAt": "2018-04-08T03:43:20.943Z"
}